:04000000803118280B
:100008007E14803120007F082100A5000B1B121DE3
:1000180012282000121D12288331A0232100250850
:100028002000FF007E10090080311A282100C3013A
:10003800C401C501C601C701C801C901B0308400A7
:10004800013085003F30FE000030FF009F31E5277A
:10005800803120308400023085001D30FE000030E1
:10006800FF009F31E5278031A030840002308500F1
:100078004030FE000030FF009F31E52780312030FE
:100088008400033085004030FE000030FF009F31BF
:10009800E5277E10200090313E2820005203031DE2
:1000A8006A2850081F39003A031D6A282100C5171D
:1000B800033020005106031D682801302100BA00D2
:1000C8003A082300E0006A282300E00120005208D3
:1000D800031D080050081F39023A031D0800540880
:1000E8000F39003A0319080054080F392100BA00E3
:1000F80003303A0203180800203023006506031D68
:1001080008002100C5172000D41B9B2854080F396C
:100118000907BD3E860001308700403F2100BF002F
:10012800413FC000200054080F39C73EAC282000CA
:1001380054080F390907B73E860001308700403F51
:100148002100BF00413FC000200054080F39CA3EBB
:1001580086000130870001082100BA003A08BE0075
:100168003E18C028FB30BA00FF30BB003F083A05F4
:10017800BF0040083B05C52804303F04BF000030DD
:100188004004C0002000D41BD62854080F390907A2
:10019800BD3E86000130870021003F08C03F40086F
:1001A800C13FE328200054080F390907B73E8600ED
:1001B8000130870021003F08C03F4008C13F03309D
:1001C80020005106031D092921003F088600400828
:1001D8008700811FFD282000D41BF62854080F39FA
:1001E800C73EF92854080F39CA3E860001308700F7
:1001F800811421003F0886004008870001153F0848
:1002080086004008870081170800043021003F0657
:10021800BF0000304006C0003F0886004008870045
:10022800811F33297F30BA003F08860040088700C5
:100238003A0881053F08860040088700011700300A
:10024800B5000530B4004008B7003F08B6000230DA
:10025800B8000030B90092314E228031392921008E
:100268003F088600400887000117043021003F0638
:10027800BF0000304006C000BE1848293F0886006D
:1002880040088700811F6F292000D41B4F2954087C
:100298000F39C73E522954080F39CA3E860001302B
:1002A800870081103B302100BA003F0886004008D3
:1002B80087003A0881050030B5000530B4004008D1
:1002C800B7003F08B6000230B8000030B9009231DC
:1002D8004E22803178293B302100BA003F08860041
:1002E800400887003A088105200054080F39983ED5
:1002F8002100BA00BB010E30BB3D3A08BC003B08E8
:10030800BD00FE30BA003C0886003D0887003A0868
:100318008105080020005203031DA62950081F3933
:10032800003A031DA6292100C517033020005106F5
:10033800031DA4290130E60066082300E000A62971
:100348002300E00120005208031D080050081F394F
:10035800023A031D080054080F39003A031908002F
:1003680054080F39E60003306602031808002030ED
:1003780023006506031D08002100C5172000D41BB3
:10038800D42954080F390907BD3E8600013087007B
:10039800403FEB00413FEC0054080F39C73EE229CB
:1003A80054080F390907B73E860001308700403FDF
:1003B800EB00413FEC0054080F39CA3E860001307B
:1003C80087000108E6006608EA006A18F529FB308C
:1003D800E600FF30E7006B086605EB006C08670570
:1003E800FA2904306B04EB0000306C04EC00D41BD9
:1003F800092A54080F390907BD3E860001308700D5
:100408006B08C03F6C08C13F142A54080F3909070C
:10041800B73E8600013087006B08C03F6C08C13FBB
:1004280003305106031D362A6B0886006C088700C6
:10043800811F2B2AD41B242A54080F39C73E272A88
:1004480054080F39CA3E86000130870081146B08B2
:1004580086006C08870001156B0886006C08870009
:100468008117080004306B06EB0000306C06EC00C6
:100478006B0886006C088700811F5F2A7F30E600C2
:100488006B0886006C088700660881056B08860083
:100498006C08870001170030E1000530E0006C08A7
:1004A800E3006B08E2000230E4000030E50092311E
:1004B8001E228131652A20006B0886006C0887009F
:1004C8000117043020006B06EB0000306C06EC00CE
:1004D800EA18742A6B0886006C088700811F992A1D
:1004E800D41B7A2A54080F39C73E7D2A54080F397D
:1004F800CA3E86000130870081103B30E6006B0859
:1005080086006C088700660881050030E100053028
:10051800E0006C08E3006B08E2000230E400003001
:10052800E50092311E228131A22A3B302000E600EC
:100538006B0886006C08870066088105200054084F
:100548000F39983EE600E7010E30E73D6608E800FF
:100558006708E900FE30E600680886006908870039
:1005680066088105080023006503031DC72A3D00AE
:100578008E1AC72A90011214121602302400C000E5
:1005880040082300E5003D001019121DD42AFB3055
:100598002400C00040083D0090059131612182315E
:1005A8003D008E1CDA2A2000121108001018121CB7
:1005B800EE2A853154258231210012150430240099
:1005C800C00040082300E500FE302400C0004008B9
:1005D8003D009005101A121EF42A91310221823131
:1005E8003D00101F1E2B121F092B73302100B40071
:1005F8000030B5000030B6000030B7000130B80058
:100608000030B90092314E228231BF302400C00040
:1006180040083D0090059031AA20823123005C08F3
:100628000319182B0130DC025C08031D1E2B8B31CB
:100638002F2382313D00901A921E252B9131F321F0
:1006480082313D009018921C3B2BFF302100B400F2
:100658007F30B5000030B6000030B7000130B80078
:100668000030B90092314E2282313D0093010430AE
:10067800230065020318432B2000121108003D00D7
:10068800921D9D2B2300EF0104306F0203189D2B50
:100698003D00901D9D2B0F082400C000400823003A
:1006A800ED006D0C2400C000C00C400C0F39C100D7
:1006B80041082300DE00F7302400C00040083D0058
:1006C800900523006D196B2B5E08C73E6E2B230027
:1006D8005E08CA3E860001308700010801392400FF
:1006E800C0000130C00601084006FE3940068100FE
:1006F80023005E08031D842B963128268231932B14
:1007080072302100B4000030B500ED30B600013081
:10071800B7000030B800B90092314E228231013062
:100728002400C00040082300EF0704306F02031CB8
:100738004C2B20001211080023006503031DB02B69
:100748003D008E1AB02B90011214121602302100AF
:10075800A30023082300E5003D001019121DBD2B3E
:10076800FB302100A30023083D0090059131412171
:1007780083313D008E1CC32B200012110800101875
:10078800121CD62B8631BD26833121001215043068
:10079800A30023082300E500FE302100A30023085E
:1007A8003D009005101A121EDC2B9031E320833196
:1007B8003D00101F062C121FF12B73302000E000A3
:1007C8000030E1000030E2000030E3000130E400D6
:1007D8000030E50092311E228331BF302100A30092
:1007E80023083D00900590317920833123005C086F
:1007F8000319002C0130DC025C08031D062C89312A
:10080800642183313D00901A921E0D2C9131A42150
:1008180083313D009018921C232CFF302000E0000B
:100828007F30E1000030E2000030E3000130E400F6
:100838000030E50092311E2283313D0093010430DF
:100848002300650203182B2C2000121108003D001C
:10085800921D852C2000EF0104306F020318852CAF
:100868003D00901D852C0F082100A30023082300BC
:10087800ED006D0C2100A300A30C230C0F39A4007C
:1008880024082300DE00F7302100A30023083D00E0
:10089800900523006D19532C5E08C73E562C230083
:1008A8005E08CA3E86000130870001080139210030
:1008B800A3000130A30601082306FE3923068100A0
:1008C80023005E08031D6C2C9531CC2583317B2CCD
:1008D80072302000E0000030E100ED30E20001302D
:1008E800E3000030E400E50092311E22833101303C
:1008F8002100A30023082000EF0704306F02031C27
:10090800342C2000121108002100121123004D0878
:100918004E040319982C4D0886004E088700811F45
:10092800982C2100121508000330230069060319CA
:10093800E9016908031DA32C2100121508000230E3
:1009480023006906031DC32C2100A601A60A003056
:10095800A7000030A800A90102308D312A25843172
:10096800210027082300CE00210026082300CD00FF
:1009780003302100B10031082300E900512D69033B
:10098800031D512D41306802031CCC2C4030CE2C65
:10099800230068082100B1003108B3003303FF3A8F
:1009A800230068072100B10031082300E800203047
:1009B800D2008030D10021003308B1003108B200E4
:1009C800230067080319052D262D230053088400EA
:1009D8005408850000082100B10023005108860052
:1009E8005208870021003108810001302300D10717
:1009F8000030D23D0130D3070030D43D0130210012
:100A0800B2022100320803192A2DE92C23005308C9
:100A180084005408850000082100B1002300510813
:100A28008600520887002100310881000130230028
:100A3800D1070030D23D0130D3070030D43D01301A
:100A48002100B20221003208031D0A2D2300680884
:100A5800031D3B2D403021003306031D352D023088
:100A6800372D03302100B10031082300E9002100AF
:100A7800A601A60A8030A7002030A8003308B100DC
:100A88003108A90002308D312A25210027082300CA
:100A9800CE00210026082300CD00210012150800F1
:100AA800210012113D009301900198010E302100A0
:100AB800A8009930A700A901023029020318752D52
:100AC800270886002808870081010130A707003021
:100AD800A83D0130A6002608A90702302902031CF8
:100AE800642D16303D0091009F3097007B309200B6
:100AF8002100AA010C302A0203189B2D2A08A600FF
:100B08000130A635FF3E031D852D2635203E860083
:100B180087010030C03F0030C13FC23FC33F0130B2
:100B2800A6002608AA070C302A02031C822D3D00C5
:100B38000E1796010E120E13F7302100A600260894
:100B48003D0090052100C5012300B201B301B401A5
:100B58003D009019A02D01302100A6002608230091
:100B6800DA0001302100A60026082300D900D801A8
:100B7800D701DF012100AA0103302A020318E82D5A
:100B88002A35B73E8600013087000030C03FC13F9C
:100B98002A35BD3E8600013087000030C03FC13F86
:100BA8002A08CA3E86000130870081012A08C73E0C
:100BB80086000130870081010130A6002608AA07B7
:100BC80003302A02031CC42D28302300B70000304C
:100BD800B80016303D00980000302000A3005030C7
:100BE800A2000830A10004302100A6002608200039
:100BF800A000A0172300EE010030C6000030C50099
:100C08000030C4000030C300D601E501080023000D
:100C1800640886008701413F2100AB002B08A8002B
:100C2800A901290823003402031D1E2E21002808CB
:100C3800230033020318252E33082100A8002808B2
:100C4800AB0021002B08A800A90128082300B30243
:100C5800210029082300B43B2100AA012B082A02FD
:100C680003184F2E2A08583E860087010108A8005D
:100C78002300300886000230870021002808810000
:100C88000130A80028082300B00701302100A8007F
:100C98002808AA07322E23003308340403198E2E9D
:100CA80021004808013EA8000030493DA900280855
:100CB800860029088700083081005830A8000030D5
:100CC800A900480886004908870042312808C03F23
:100CD8002908C13F2300640886008701011B812E73
:100CE80021004808860049088700483081004808E4
:100CF80086004908870081170800210048088600F7
:100D0800490887000830810048088600490887009C
:100D18008117080021004808013EA8000030493D1D
:100D2800A90028088600290887000830810050306B
:100D3800A8000030A9004808860049088700423109
:100D48002808C03F2908C13F48088600490887008D
:100D5800043081004808860049088700811723006D
:100D680035083608B2135B08031D08008B312F23A2
:100D78000800210012113D009301900198010E30E6
:100D8800F2009930F100F301023073020318DD2EEE
:100D9800710886007208870081010130F107003070
:100DA800F23D0130F0007008F30702307302031CB3
:100DB800CC2E16303D0091009F3097007B3092007A
:100DC800F4010C3074020318022F7408F00001308B
:100DD800F035FF3E031DEC2E7035203E860087015E
:100DE8000030C03F0030C13FC23FC33F0130F00078
:100DF8007008F4070C307402031CE92E3D000E172E
:100E080096010E120E13F730F000700890052100BD
:100E1800C5012300B201B301B4013D009019072FA9
:100E28000130F00070082300DA000130F00070088B
:100E3800D900D801D701DF01F40103307402031887
:100E4800492F7435B73E8600013087000030C03F17
:100E5800C13F7435BD3E8600013087000030C03F79
:100E6800C13F7408CA3E86000130870081017408BA
:100E7800C73E86000130870081010130F00070080C
:100E8800F40703307402031C252F28302300B70011
:100E98000030B80016303D00980000302000A30054
:100EA8005030A2000830A1000430F0007008A00003
:100EB800A0172300EE010030C6000030C500003046
:100EC800C4000030C300D601E50108003D000E1241
:100ED8002100C51BB32F2300B21F812F0230210030
:100EE800AB002B082300E2005708031D7D2F963125
:100EF800E0262300D901DA01080021004808013E54
:100F0800AB000030493DAC002B0886002C08870058
:100F1800083081005030AB000030AC004808860033
:100F28004908870042312B08C03F2C08C13F4808B8
:100F38008600490887000C30810048088600490867
:100F48008700811723003708860038088700043097
:100F580081003708860038088700811708002000BC
:100F6800D01FCB2F01302100AB002B082300E2005B
:100F78005808031DC22F9631E02687312300D90176
:100F8800DA015B08031D08008B312F2308000230AB
:100F98002100AB002B082300E20021004808013E95
:100FA800AB000030493DAC002B0886002C088700B8
:100FB800083081005030AB000030AC004808860093
:100FC8004908870042312B08C03F2C08C13F480818
:100FD80086004908870004308100480886004908CF
:100FE800870081172300D901DA015B08031D080077
:060FF8008B312F230800DD
:101000002100121123006908031909282100121573
:1010100008002100AD012708AC002608AB00013014
:10102000A8002808AD072D0A031924282C08A900B8
:101030002B08A800AB0A0319AC0A28088400290869
:1010400085001200031D0F2827082300D40021006B
:1010500026082300D30021002D08A800280823001B
:10106000E800E701E901E90A210012150800200063
:10107000500E890C0339003A031D08008D28210009
:10108000C51708302000ED006D082300E5000800BA
:101090008B31A92308008D31AE250800EE302100E8
:1010A000C3000130C400451401302000ED006D087C
:1010B0002100C600C51708009431C2240800813100
:1010C0008E21080020005408EB3E2100C3000130AF
:1010D000C400451401302000ED006D082100C60059
:1010E000C51708002100C51720005208ED0054085C
:1010F000EB3E8600013087006D088100080000305B
:10110000E1000230E0000030E2000030E300003097
:10111000E400E50092311E220800200051088400FE
:101120000D30040203180800903104351A3E820085
:101130000800200050081F39013A031D0800500E16
:10114000890C0339013A031D080054080319E928E2
:101150005403031D0800E9282E302100C30002308B
:10116000C4000030C7000830C6004514C517080089
:101170002E302100C3000230C400C5170800200033
:1011800057082300B400200056082300B30036306F
:101190002100A60026082300B000B501B601B21751
:1011A000080036302100C3000230C4000030C70000
:1011B0000730C600C130A6002608C5000800200080
:1011C00052082100A60026082300E6002100C517CA
:1011D000080020005108003A0319AC28013A03190D
:1011E000B828213A0319BF28013A0319D128033A34
:1011F0000319DF28FB280800230037088600380879
:1012000087000030011B0130F50004303706B700BD
:1012100000303806B80008306506031D1E2920007E
:1012200052087F393D00960016080319192910301D
:101230001A290430F30073082300E5006203031D3C
:101240005D295830F3000030F40037088600380874
:10125000870042317308C03F7408C13F8A31412280
:101260008831023023006306031D422937088600B7
:101270003808870004308100370886003808870066
:10128000811708007508031D5129370886003808A2
:1012900087004830810037088600380887008117AA
:1012A00008003708860038088700083081003708B2
:1012B00086003808870081170800B21F62293508A8
:1012C0003608B213E201080023005A08031D080083
:1012D0000130F0007008DA005908031D08000130E1
:1012E000F0007008D90002306206031D8929370812
:1012F00086003808870041318101370886003808A8
:101300008700483081003708860038088700811739
:1013100008006203031D0800DD010830F000640AC4
:1013200086008701700881005030F0000030F10025
:101330006408023E860087017008C03F7108C13F03
:101340000430F0006408860087017008810064089A
:101350008600870181170130F0007008DD00210050
:101360004808013EF0000030493DF1007008860059
:1013700071088700083081005030F0000030F10023
:10138000480886004908870042317008C03F71084C
:10139000C13F480886004908870080308100080066
:1013A000230037088600380887000030011B013011
:1013B0002100AB00043023003706B70000303806A8
:1013C000B80008306506031DF529200052087F3952
:1013D0003D00960016080319EF291030F02904305B
:1013E0002100A90029082300E5006203031D3A2A11
:1013F00058302100A9000030AA00230037088600D9
:1014000038088700423121002908C03F2A08C13F1F
:101410008A31B5228931023023006306031D1C2A5C
:1014200037088600380887000430810037088600B6
:10143000380887008117080021002B08031D2D2A7A
:1014400023003708860038088700483081003708B5
:1014500086003808870081170800230037088600B7
:101460003808870008308100370886003808870070
:1014700081170800B21F3F2A35083608B213E2016F
:1014800008000830F0007008F20000302100470228
:1014900008300319460203185E2A4608F000700857
:1014A000F20023006308031D572A01305B2A6303FF
:1014B000031D5E2A0230F0007008E3007208F0009D
:1014C000F10170082100C6027108C73B23003708EC
:1014D000013EF0000030383DF100700886007108D0
:1014E0008700720881005830F0007008E100210088
:1014F000451C942AB12A2100430884004408850031
:101500000008F00023006108860087017008810050
:1015100001302100C3070030C43D0130F0007008E5
:101520002300E1070130F2027208031908007B2A48
:10153000210043088400440885000008F0002300CF
:101540006108860087017008810001302100C3070F
:101550000030C43D0130F00070082300E107013085
:10156000F202720803190800982A08302100A60028
:101570002608A80000304702083003194602031865
:10158000D42A4608A6002608A80023006308031DE5
:10159000CB2A0130CF2A6303031DD42A0230210055
:1015A000A60026082300E30021002808A600A701C2
:1015B0002608C6022708C73B23003708013E210042
:1015C000A60000302300383D2100A7002608860031
:1015D00027088700280881005830A6002608230025
:1015E000E1002100451C0E2B2B2B430884004408EE
:1015F00085000008A60023006108860087012100FD
:10160000260881000130C3070030C43D0130A60028
:1016100026082300E10701302100A8022808031949
:101620000800F52A43088400440885000008A60045
:10163000230061088600870121002608810001300F
:10164000C3070030C43D0130A60026082300E1078F
:1016500001302100A802280803190800122B2300DA
:101660005A08031D080001302100A60026082300A7
:10167000DA005908031D080001302100A6002608E1
:101680002300D90002306206031D582B370886005C
:101690003808870041318101370886003808870003
:1016A0004830810037088600380887008117080015
:1016B0006203031D0800DD0108302100A60023009D
:1016C000640A860087012100260881005030A600A8
:1016D0000030A70023006408023E86008701210035
:1016E0002608C03F2708C13F0430A6002300640835
:1016F00086008701210026088100230064088600F7
:101700008701811701302100A60026082300DD0093
:1017100021004808013EA6000030493DA7002608E8
:10172000860027088700083081005030A60000306E
:10173000A700480886004908870042312608C03FB4
:101740002708C13F4808860049088700803081008B
:101750000800803020005006031D0800C030F00053
:1017600070082100C5001B2C91302100C300983067
:10177000C4000030C7001230C60008002000520824
:10178000031DF12B5208F000F101F035F10DB030DE
:10179000700784009830713D8500003F2100C30030
:1017A000013FC4004408F1004308F0000230700714
:1017B000840071080318710A85000008F20072089D
:1017C000C6004408F1004308F000033070078400AD
:1017D00071080318710A85000008F2007208C7003A
:1017E00008002100C5010800033020005202031840
:1017F000152C5208F000F101F035F10DAA307007F8
:1018000084009830713D8500003F2100C300013FF6
:10181000C40043088400440885000008F000F1017A
:101820007008C6007108C70008002100C501080043
:101830002100C501080020005308013A0319B42B08
:10184000033A0319BE2B013A0319F42B182C080094
:10185000803020005006031D0800C0302100A60083
:101860002608C5009A2C91302100C3009830C4008E
:101870000030C7001230C600080020005208031DC7
:10188000702C52082100A600A701A635A70DB03084
:10189000260784009830273D8500003FC300013FA4
:1018A000C4004408A7004308A600023026078400AD
:1018B00027080318270A85000008A8002808C60082
:1018C0004408A7004308A600033026078400270821
:1018D0000318270A85000008A8002808C700080088
:1018E0002100C50108000330200052020318942C87
:1018F00052082100A600A701A635A70DAA30260789
:1019000084009830273D8500003FC300013FC4009C
:1019100043088400440885000008A600A7012608A3
:10192000C6002708C70008002100C50108002100E3
:10193000C501080020005308013A0319332C033A6B
:1019400003193D2C013A0319732C972C0800F80059
:1019500070080319B42C7835B73E86000130870033
:10196000403FF900413FBC2C7835BD3E8600013038
:101970008700403FF900413FFA0079087A04031DCF
:10198000C42CF001F1010800FF307105F4007F3034
:101990007205F500790886007A08870042317408DC
:1019A000C03F7508C13F7908013EF40000307A3D20
:1019B000F5007408860075088700730881004030C0
:1019C000F400790886007A08870074088105790890
:1019D00086007A0887008115790886007A088700D2
:1019E0008117700803190D2D7835B73E8600013038
:1019F0008700403FF400413FF50004307406F600D4
:101A000000307506F7007835B73E86000130870054
:101A10007608C03F7708C13F252D7835BD3E86004A
:101A200001308700403FF400413FF5000430740668
:101A3000F60000307506F7007835BD3E86000130AF
:101A400087007608C03F7708C13F7A08F10079081F
:101A5000F00008002100AE0026080319382D2E35AD
:101A6000B73E860001308700403FAF00413F402D28
:101A70002E35BD3E860001308700403FAF00413F1C
:101A8000B0002F083004031D482DA601A70108004F
:101A9000FF302705AA007F302805AB002F088600FD
:101AA0003008870042312A08C03F2B08C13F2F0869
:101AB000013EAA000030303DAB002A0886002B080A
:101AC0008700290881004030AA002F0886003008CE
:101AD00087002A0881052F088600300887008115B5
:101AE0002F08860030088700811726080319912DDA
:101AF0002E35B73E860001308700403FAA00413FA7
:101B0000AB0004302A06AC0000302B06AD002E35A9
:101B1000B73E8600013087002C08C03F2D08C13F2A
:101B2000A92D2E35BD3E860001308700403FAA001A
:101B3000413FAB0004302A06AC0000302B06AD005C
:101B40002E35BD3E8600013087002C08C03F2D0891
:101B5000C13F3008A7002F08A60008002100C517C4
:101B60000E302000E8009930E700E90102306902F8
:101B70000318CB2D670886006808870081010130B3
:101B8000E7070030E83D0130E6006608E90702306B
:101B90006902031CBA2D2030F0000030F100003043
:101BA000F200F3003030F4000030F5009031612095
:101BB0008D313D000E172000EA0103306A02031840
:101BC000F52D6A08CA3E86000130870081016A0847
:101BD000C73E86000130870081010130E6006608BB
:101BE000EA0703306A02031CE12DEB30F0000130FC
:101BF000F1000030F200F3000230F4000030F50094
:101C0000903161208D313D000E1328302300B70044
:101C10000030B80020302000E60066082300E40011
:101C200064082100C800FF39031D0030C9002000EE
:101C30005208E60066082300EE006E08031D272EFA
:101C400010302000E60066082300E50008000030A0
:101C50002000E1000130E000EE30E2000130E3005E
:101C60000130E4000030E50092311E2220302000D7
:101C7000E60066082300E50008002100C5170E30C5
:101C8000BC009930BB00BD0102303D020318592E43
:101C90003B0886003C08870081010130BB0700300B
:101CA000BC3D0130BA003A08BD0702303D02031CBA
:101CB000482E2030A6000030A7000030A800A90060
:101CC0003030AA000030AB00903191208E313D00C1
:101CD0000E172100BE0103303E020318832E3E087A
:101CE000CA3E86000130870081013E08C73E86005B
:101CF0000130870081010130BA003A08BE07033085
:101D00003E02031C6F2EEB30A6000130A70000300E
:101D1000A800A9000230AA000030AB009031912049
:101D20008E313D000E1328302300B7000030B8007C
:101D300020302100BA003A082300E40064082100A2
:101D4000C800FF39031D0030C900200052082100DF
:101D5000BA003A082300EE006E08031DB62E1030BC
:101D60002100BA003A082300E500080000302100F5
:101D7000B5000130B400EE30B6000130B7000130DC
:101D8000B8000030B90092314E2220302100BA0054
:101D90003A082300E50008003D000E122100C51B93
:101DA000132F2300B21FE12E0230F5007508E20068
:101DB0005708031DDD2E953170252300D901DA0166
:101DC000080021004808013EF5000030493DF600BA
:101DD0007508860076088700083081005030F500CD
:101DE0000030F6004808860049088700423175082F
:101DF000C03F7608C13F48088600490887000C307C
:101E000081004808860049088700811723003708A9
:101E100086003808870004308100370886003808BB
:101E20008700811708002000D01F2A2F0130F500FD
:101E300075082300E2005808031D212F95317025F5
:101E40008E312300D901DA015B08031D08008931B6
:101E5000642108000230F50075082300E20021002B
:101E60004808013EF5000030493DF600750886003F
:101E700076088700083081005030F5000030F60009
:101E8000480886004908870042317508C03F760837
:101E9000C13F48088600490887000430810048088F
:101EA00086004908870081172300D901DA015B0801
:101EB000031D08008931642108002300640886009E
:101EC0008701413FF5007508F200F3017308340201
:101ED000031D6C2F720833020318722F3308F200AF
:101EE0007208F5007508F200F3017208B302730876
:101EF000B43BF401750874020318932F7408583E1C
:101F0000860087010108F200300886000230870051
:101F1000720881000130F2007208B0070130F2004F
:101F20007208F4077A2F330834040319D12F2100E3
:101F30004808013EF2000030493DF3007208860077
:101F400073088700083081005830F2000030F30039
:101F5000480886004908870042317208C03F73086C
:101F6000C13F2300640886008701011BC42F2100A4
:101F700048088600490887004830810048088600E4
:101F80004908870081170800210048088600490891
:101F900087000830810048088600490887008117BB
:101FA000080021004808013EF2000030493DF300DE
:101FB0007208860073088700083081005030F200F4
:101FC0000030F30048088600490887004231720853
:101FD000C03F7308C13F48088600490887000430A5
:101FE00081004808860049088700811723003508CA
:101FF0003608B2135B08031D08008931642108000C
:102000009731C12F9731C42F9731FF2F9731C42FAC
:102010009731FF2F9731A72F9731AF2F9731E52FAA
:102020009731B52F9731B22F9731C72F9731D52FD1
:102030009731FF2F88315C2888315F2888319828B4
:1020400088315F288831982888313F28883148288E
:1020500088317F2888314E2888314B288831622882
:082060008831722888319828AC
:1020740016302100970008009F31F12790319331E9
:102084005C23903120008E118231B722903193313C
:1020940020239031462822008C018E01303021000B
:1020A4008C0037308E000F3023008E0010308C00EF
:1020B40024008C012100951722009D01080071085D
:1020C400F7007008F6000130F4020030F53B740AA2
:1020D4000319750A03190800760886007708870033
:1020E400720881000130F6070030F73D65280130A1
:1020F4002300C3070030C43D0030C53D0030C63D59
:102104005F08031D08000130F0007008D607560868
:10211400031D0800FF30F0007008D60008002100FD
:102124002708AD002608AC000130AA020030AB3B02
:102134002A0A03192B0A031908002C0886002D0803
:102144008700280881000130AC070030AD3D962897
:1021540001302300C3070030C43D0030C53D0030CA
:10216400C63D5F08031D080001302100A6002608B3
:102174002300D6075608031D0800FF302100A600DF
:1021840026082300D600080023006508031D080064
:102194003D008E019201163091009F3097007B30F4
:1021A4009200210012150B178B173D008E19DC28A5
:1021B4008E15D72801302100A60026082300E5004B
:1021C40008003D001215EF302000E60066083D00CF
:1021D40090058E1401302000E60066082300DF001D
:1021E400D60175302000E0000030E1000030E2004C
:1021F4000030E3000030E400E50092311E220800C4
:102204003D001215EF302100BA003A083D00900558
:102214008E1401302100BA003A082300DF00D601F1
:1022240075302100B4000030B5000030B600003035
:10223400B7000030B800B90092314E220800FC000B
:10224400771D2929F0017C0893319A239131F71CD9
:102254003029F001F00A7C0893319A237C08983ED7
:10226400F800F9010E30F93D7808FA007908FB000E
:102274007A0886007B08870077088100080023001D
:10228400DF0174302000E0000030E1000030E200A3
:102294000030E3000030E400E50092311E22913169
:1022A4003D008E101211101D5E29FB302000E60047
:1022B40066083D00900555292300D6010800230037
:1022C400DF0174302100B4000030B5000030B600E6
:1022D4000030B7000030B800B90092314E2291317D
:1022E4003D008E101211101D7E29FB302100BA0012
:1022F4003A083D00900575292300D6010800210005
:10230400B2002D1D8A29A60132089331DC239131B4
:102314002100AD1C9229A601A60A32089331DC23C0
:1023240021003208983EAE00AF010E30AF3D2E08BA
:10233400B0002F08B10030088600310887002D084E
:10234400810008003D00181CC4292300640886008D
:10235400870180300106031DC2293708860038082A
:10236400870084300106031DC2290C30F000640884
:102374008600870170088100640886008701811740
:102384003D001810DF30F0007008900508002100AF
:10239400AA00D4290130A8002808AA070130A607FA
:1023A4000030A73D2A0886000230870026088400F2
:1023B400270885000008FF3A013E0107A800280805
:1023C400A9002908031DED292A0886000230870088
:1023D4000108031DCC292908A600A701A61BA703F1
:1023E40008003D00181C172A230064088600870192
:1023F40080300106031D152A370886003808870037
:1024040084300106031D152A0C302100A600230088
:1024140064088600870121002608810023006408DF
:102424008600870181173D001810DF302100A600C7
:1024340026083D0090050800252A9231B4220800A0
:1024440097313F27080020006108003A03192E2A1B
:102454007F3A0319482A4D2A6008013A03191F2AB2
:10246400033A03194D2A013A0319222A063A031999
:102474004D2A773A03194D2A013A03194D2A073A8E
:1024840003194D2A013A03194D2A4D2A6008FF3ACF
:1024940003194D2A4D2A0800552A93315C2308005C
:1024A40088319920080021003508003A03195E2A72
:1024B4007F3A0319782A7D2A3408013A03194F2AEE
:1024C400033A03197D2A013A0319522A063A0319D9
:1024D4007D2A773A03197D2A013A03197D2A073A9E
:1024E40003197D2A013A03197D2A7D2A3408FF3A0B
:1024F40003197D2A7D2A0800023023006206031D89
:10250400862A8F315D2708002300E2015D08031D40
:10251400B12A21004808013EF6000030493DF70089
:102524007608860077088700083081005030F6006E
:102534000030F700480886004908870042317608D1
:10254400C03F7708C13F48088600490887000C301F
:102554008100480886004908870081170800230085
:10256400DD01080000302400B9000030B8004B3011
:10257400B7000030B600BA01BB010830FD007D0889
:10258400BC002300EA011A30FD007D08F700013089
:102594009131212192311E30FD007D08F700023077
:1025A400913121219231F001C030F1002030F2004C
:1025B4004030FD007D08F30002308C31A7247108FF
:1025C4002300D0007008CF00CD01CE01E90108003E
:1025D400023023006206031DF22A86310B2608000E
:1025E4002300E2015D08031D1D2B21004808013E64
:1025F400AC000030493DAD002C0886002D08870052
:10260400083081005030AC000030AD00480886002E
:102614004908870042312C08C03F2D08C13F4808B3
:102624008600490887000C30810048088600490864
:102634008700811708002300DD01080020302300F3
:102644006502031C08003D008E1808002300690879
:10265400031D592B40302100B5003508B100A030CE
:102664009631842693312100B6003608B700370826
:102674000319592BA730A6009830A700A030913138
:10268400C9219331210026082704031D4C2B200067
:102694008E154E2B20008E1121003708B500B6018F
:1026A4003508A6003608A70088310020933184310C
:1026B4008824080000302400B9000030B8004B30F2
:1026C400B7000030B600BA01BB0108302100B300E6
:1026D40033082400BC002300EA011A302100B300AF
:1026E4003308AD0001309131812193311E30210036
:1026F400B3003308AD0002309131812193312100C0
:10270400A601C030A7002030A8004030B300330831
:10271400A90002308D312A25210027082300D0008A
:10272400210026082300CF00CD01CE01E9010800D5
:10273400F5002030F1007108F6007008F100013056
:10274400F135890BA22B7508F2000130F235FF3EFA
:10275400031DA82B72357107F3000130F335FF3EDA
:10276400031DB02B7335F4007408F6077608860051
:10277400870181137008031DC92B7535BD3E860082
:10278400013087007608C03F0030C13FD22B753539
:10279400B73E8600013087007608C03F0030C13F55
:1027A40076088600870101137608043E86008701B7
:1027B400011708002100AB002030A7002708AC0057
:1027C4002608A7000130A735890BE52B2B08A800A4
:1027D4000130A835FF3E031DEB2B28352707A90040
:1027E4000130A935FF3E031DF32B2935AA002A0821
:1027F400AC072C088600870181132608031D0C2CC6
:102804002B35BD3E8600013087002C08C03F0030C8
:10281400C13F152C2B35B73E8600013087002C08AC
:10282400C03F0030C13F2C088600870101132C08EB
:10283400043E86008701011708002300E301DB0141
:10284400D801D701DD01E2017F302100C20023005D
:1028540037088600380887002100420881050430C3
:1028640023003706B70000303806B8007F30210057
:10287400C200230037088600380887002100420878
:102884008105043023003706B70000303806B8004D
:102894007F302100C20048088600490887004208AA
:1028A4008105C501C601C7012300B201B301B4010A
:1028B40097319F27943100302100B5000330B400D4
:1028C4000030B6000030B7000030B800B9009231D3
:1028D4004E22943187316A2708002300E301DB018B
:1028E400D801D701DD01E2017F302000EE00230092
:1028F400370886003808870020006E0881050430F8
:1029040023003706B70000303806B8007F302000B7
:10291400EE002300370886003808870020006E0880
:102924008105043023003706B70000303806B800AC
:102934007F302000EE002100480886004908870007
:1029440020006E0881052100C501C601C7012300CE
:10295400B201B301B4018831372094310030200032
:10296400E1000330E0000030E2000030E30000301A
:10297400E400E50092311E2294318E31CC26080009
:102984002000D801D901FE2C2100C51723006003C3
:10299400031D0A2D2000D8140A2D2100C5170A2D65
:1029A4002100C5172000D41BE22C54080F39090755
:1029B400BD3E860001308700403FF100413FEC2CD2
:1029C40054080F390907B73E860001308700403F9D
:1029D400F100413FF2007108860072088700811FF0
:1029E4000A2D7108860072088700011D0A2D013026
:1029F400F0007008D8000A2D50081F39003A031956
:102A0400C62C013A0319CF2C033A0319D22C0A2DF0
:102A14002100C51F08005830C3000030C40045140D
:102A24000230F0007008C60008002000D801D90167
:102A3400572D2100C51723006003031D632D2000BB
:102A4400D814632D2100C517632D2100C51720005C
:102A5400D41B382D54080F390907BD3E86000130B8
:102A64008700403F2100A700413F442D2000540827
:102A74000F390907B73E860001308700403F210027
:102A8400A700413FA8002708860028088700811F67
:102A9400632D2708860028088700011D632D013057
:102AA400A60026082000D800632D50081F39003ADC
:102AB40003191B2D013A0319242D033A0319272D59
:102AC400632D2100C51F08005830C3000030C40026
:102AD40045140230A6002608C60008002300D801C9
:102AE400D70102306206031D9D2D21004808013ED6
:102AF400F3000030493DF400730886007408870031
:102B0400083081005830F3000030F4004808860093
:102B14004908870042317308C03F7408C13F480820
:102B24008600490887004830810048088600490823
:102B34008700811708002100470820005702031D61
:102B4400A72D21004608200056020318B02D57086F
:102B54002100C700200056082100C6008A31412206
:102B64005830F3000030F40023003708860038089A
:102B7400870042317308C03F7408C13F370886009C
:102B840038088700483081003708860038088700F5
:102B9400811708002D302100A00020082300DC004C
:102BA4006D08FD39031D1C2E6D363F392100A00030
:102BB4000130A035FF3E031DDB2D2035203EA10052
:102BC40021082300E40064082100C800FF39031D24
:102BD4000030C90004304806C80000304906C90066
:102BE4002300640886008701010C890C0F390D3A13
:102BF400031D192E50308600870123006408023E0D
:102C040084008501003F2100A000013FA1002008AD
:102C14008400210885000830A20022080319162E1A
:102C240012001E00A20B122E94316F240800923160
:102C34007E220800FD3023006D052100A000043031
:102C44002006031D08008831FC2008002D302400D4
:102C5400BD003D082300DC006D08FD39031D782EFE
:102C64006D363F392400BD000130BD35FF3E031DE4
:102C7400372E3D35203EBE003E082300E4006408A4
:102C84002100C800FF39031D0030C9000430480684
:102C9400C80000304906C900230064088600870183
:102CA400010C890C0F390D3A031D752E5030860026
:102CB400870123006408023E84008501003F24004C
:102CC400BD00013FBE003D0884003E088500083079
:102CD400BF003F080319722E12001E00BF0B6E2E98
:102CE40094311F2408009231EA220800FD302300A9
:102CF4006D052400BD0004303D06031D0800893124
:102D0400D02108002100B4002300EA014F08500438
:102D14000319922E4F08860050088700811BDE2E6F
:102D24004F08860050088700413121003108010214
:102D34000318A72E23004F0886005008870041314E
:102D440001082100B2003208B1002300EA01210089
:102D5400310823006A020318C92E6A08C03E86009F
:102D640087012030873D01082100B20023006A0852
:102D740021003407B300330886000230870032088C
:102D840081000130B20032082300EA07A92E210095
:102D9400A601C030A7002030A8004030B20032089D
:102DA400A90002308D312A25210027082300D000F4
:102DB400210026082300CF006A0808002300D80158
:102DC400D70102306206031D0D2F21004808013E81
:102DD400A9000030493DAA00290886002A08870076
:102DE400083081005830A9000030AA004808860045
:102DF4004908870042312908C03F2A08C13F4808D2
:102E04008600490887004830810048088600490840
:102E14008700811708002100470820005702031D7E
:102E2400172F21004608200056020318202F5708A8
:102E34002100C700200056082100C6008A31B522AF
:102E440058302100A9000030AA002300370886006A
:102E540038088700423121002908C03F2A08C13FB1
:102E64002300370886003808870048308100370877
:102E740086003808870081170800200050081F3991
:102E8400013A031D0800500E890C0339013A031D51
:102E94000800540803198C2F5403031D08008C2FB9
:102EA4002E302100C3000230C4000030C7000830B7
:102EB400C6004514C51708002E302100C300023097
:102EC400C400C5170800200057082300B4002000E0
:102ED40056082300B3003630F0007008B000B50186
:102EE400B601B217080036302100C3000230C40016
:102EF4000030C7000730C600C130F0007008C500BC
:102F0400080020005208F00070082300E6002100A9
:102F1400C517080020005108003A0319522F013A3E
:102F240003195E2F213A0319652F013A0319752FEE
:102F3400033A0319832F9E2F08002000500E890C9A
:102F44000339003A031D0800F42F2100C517083087
:102F5400C10041082300E50008008C312824080042
:102F64008E313D260800EE302100C3000130C4003C
:102F740045140130C1004108C600C5170800953149
:102F84001725080080315120080020005408EB3E2A
:102F94002100C3000130C40045140130C1004108C0
:102FA400C600C51708002100C517200052082100DB
:102FB400C10020005408EB3E860001308700210048
:102FC40041088100080000302100B5000230B4003F
:102FD4000030B6000030B7000030B800B9009231BC
:102FE4004E2208002000510884000D30040203180A
:102FF400080090310435003E820008000934023490
:1030040043340034023401340034C03432340934DB
:103014000434003400340134023402340134003402
:103024000534243400341034013404342434023498
:103034000234053424340634003401340534243491
:1030440001340034013407340534813403340A3440
:1030540000340234093404340134003402340A34B0
:10306400003400340034073405340234023440346C
:1030740000340034073405348234023440340034DC
:103084000034343403344D3400346934003463344C
:103094000034723400346F340034633400346834E0
:1030A400003469340034703400342034003454342F
:1030B40000346534003463340034683400346E34CE
:1030C40000346F3400346C3400346F3400346734AB
:1030D40000347934003420340034493400346E34FC
:1030E4000034633400342E3400341A34033450343E
:1030F4000034723400346F34003464340034753472
:1031040000346334003474340034203400344E34D6
:103114000034613400346D340034653400341234C6
:103124000134003402340234003400340834D83416
:1031340004340A34003400340134013402340034D9
:10314400013404340334093404344F344E34003429
:10315400A33498344334983477349834003498340E
:103FB2007C3021009900980127009B012200960184
:103FC20021001A1B0800E12F640080010131013039
:103FD200FE020030FF3B7F087E0403190034E62F07
:103FE20090314D209F319F31D9279F3190313A2016
:0E3FF2009F31853154259F319031C620080043
:020000040001F9
:04000E00E4FFCFFF3D
:00000001FF
