:1000000080313428033008007E14803120007F08BE
:100010002100A5000B1F2E28121D15282000121DDF
:1000200015288331CA2380312E282100921D2228D1
:100030002000921D222824004E088A004D080A0044
:1000400080312E282100911D2E282000911D2E2860
:1000500024004C088A004B080A0080312100250842
:100060002000FF007E10090080313628BD3084005A
:100070009F308500A0308600023087000030FF00EE
:1000800020309D31A62580312100C301C401C50166
:10009000C601C701C801C901B03084000130850024
:1000A0003F30FE000030FF009D319A258031203026
:1000B0008400023085003E30FE000030FF009D319C
:1000C0009A25803120308400033085004030FE00C6
:1000D0000030FF009D319A258031A030840003302C
:1000E00085004030FE000030FF009D319A257E10D3
:1000F00020009031002820005203031D942850084E
:100100001F39003A031D94282100C5170330200031
:100110005106031D922801302100BA003A0823003D
:10012000E00094282300E00120005208031D08008D
:1001300050081F39023A031D080054080F39003ACD
:100140000319080054080F392100BA0003303A029D
:1001500003180800203023006506031D0800210055
:10016000C5172000D41BC52854080F390907BD3E08
:10017000860001308700403F2100BF00413FC000A2
:10018000200054080F39C73ED628200054080F39E4
:100190000907B73E860001308700403F2100BF00BD
:1001A000413FC000200054080F39CA3E860001308C
:1001B000870001082100BA003A08BE003E18EA286C
:1001C000FB30BA00FF30BB003F083A05BF004008D3
:1001D0003B05EF2804303F04BF0000304004C0005E
:1001E0002000D41B002954080F390907BD3E8600A2
:1001F0000130870021003F08C03F4008C13F0D2962
:10020000200054080F390907B73E860001308700E7
:1002100021003F08C03F4008C13F03302000510685
:10022000031D332921003F08860040088700811FF5
:1002300027292000D41B202954080F39C73E232921
:1002400054080F39CA3E860001308700811421000E
:100250003F0886004008870001153F0886004008D7
:10026000870081170800043021003F06BF000030DE
:100270004006C0003F08860040088700811F5D29B6
:100280007F30BA003F088600400887003A088105A1
:100290003F0886004008870001170030B500053090
:1002A000B4004008B7003F08B6000230B800003084
:1002B000B900913108218031632921003F0886006F
:1002C000400887000117043021003F06BF000030BE
:1002D0004006C000BE1872293F088600400887000B
:1002E000811F99292000D41B792954080F39C73E52
:1002F0007C2954080F39CA3E8600013087008110DE
:100300003B302100BA003F088600400887003A08C9
:1003100081050030B5000530B4004008B7003F0843
:10032000B6000230B8000030B900913108218031A8
:10033000A2293B302100BA003F0886004008870010
:100340003A088105200054080F39983E2100BA0070
:10035000BB010E30BB3D3A08BC003B08BD00FE307F
:10036000BA003C0886003D0887003A08810508006D
:1003700020005203031DD02950081F39003A031DE5
:10038000D0292100C517033020005106031DCE29B6
:100390000130E60066082300E000D0292300E001D8
:1003A00020005208031D080050081F39023A031D9F
:1003B000080054080F39003A0319080054080F398F
:1003C000E6000330660203180800203023006506AB
:1003D000031D08002100C5172000D41BFE29540866
:1003E0000F390907BD3E860001308700403FEB0012
:1003F000413FEC0054080F39C73E0C2A54080F390E
:100400000907B73E860001308700403FEB00413FBF
:10041000EC0054080F39CA3E8600013087000108FD
:10042000E6006608EA006A181F2AFB30E600FF3083
:10043000E7006B086605EB006C086705242A0430AA
:100440006B04EB0000306C04EC00D41B332A54081E
:100450000F390907BD3E8600013087006B08C03F99
:100460006C08C13F3E2A54080F390907B73E860081
:10047000013087006B08C03F6C08C13F0330510654
:10048000031D602A6B0886006C088700811F552AAF
:10049000D41B4E2A54080F39C73E512A54080F392D
:1004A000CA3E86000130870081146B0886006C0804
:1004B000870001156B0886006C088700811708000B
:1004C00004306B06EB0000306C06EC006B08860015
:1004D0006C088700811F892A7F30E6006B08860040
:1004E0006C088700660881056B0886006C08870029
:1004F00001170030E1000530E0006C08E3006B08F4
:10050000E2000230E4000030E5009031D820813173
:100510008F2A20006B0886006C08870001170430C2
:1005200020006B06EB0000306C06EC00EA189E2AF7
:100530006B0886006C088700811FC32AD41BA42A7D
:1005400054080F39C73EA72A54080F39CA3E8600FF
:100550000130870081103B30E6006B0886006C0894
:100560008700660881050030E1000530E0006C0876
:10057000E3006B08E2000230E4000030E500903157
:10058000D8208131CC2A3B302000E6006B08860061
:100590006C08870066088105200054080F39983ED2
:1005A000E600E7010E30E73D6608E8006708E9006D
:1005B000FE30E60068088600690887006608810545
:1005C000080023006503031DF12A3D008E1AF12A5D
:1005D00090011214121602302400E1006108230079
:1005E000E5003D001019121DFE2AFB302400E10039
:1005F00061083D0090059F319D2782313D008E1C92
:10060000042B2000121108001018121C182B853121
:100610007E2582312100121504302400E10061089A
:100620002300E500FE302400E10061083D00900554
:10063000101A121E1E2B9E31FF2682313D00101F04
:10064000482B121F332B73302100B4000030B5004B
:100650000030B6000030B7000130B8000030B900FB
:10066000913108218231BF302400E10061083D0052
:1006700090059E318B26823123005C080319422BA2
:100680000130DC025C08031D482B8A319A2282313A
:100690003D00901A921E4F2B9031AD2082313D00CB
:1006A0009018921C652BFF302100B4007F30B500FC
:1006B0000030B6000030B7000130B8000030B9009B
:1006C0009131082182313D009301043023006502FD
:1006D00003186D2B2000121108003D00921DC72B3E
:1006E0002300EF0104306F020318C72B3D00901D5B
:1006F000C72B0F082400E10061082300ED006D0CFA
:100700002400E100E10C610C0F39E20062082300D3
:10071000DE00F7302400E10061083D009005230071
:100720006D19952B5E08C73E982B23005E08CA3EC4
:10073000860001308700010801392400E100013002
:10074000E10601086106FE396106810023005E08AA
:10075000031DAE2B963128268231BD2B723021002D
:10076000B4000030B500ED30B6000130B700003005
:10077000B800B90091310821823101302400E10034
:1007800061082300EF0704306F02031C762B200062
:100790001211080023006503031DDA2B3D008E1A99
:1007A000DA2B90011214121602302100A300230844
:1007B0002300E5003D001019121DE72BFB3021003E
:1007C000A30023083D0090059F317D2783313D0024
:1007D0008E1CED2B2000121108001018121C002C8A
:1007E0008631E7268331210012150430A300230847
:1007F0002300E500FE302100A30023083D00900502
:10080000101A121E062C9E31E02683313D00101F67
:10081000302C121F1B2C73302000E0000030E10050
:100820000030E2000030E3000130E4000030E50079
:100830009031D8208331BF302100A30023083D0030
:1008400090059E315A26833123005C0803192A2C17
:100850000130DC025C08031D302C87319427833182
:100860003D00901A921E372C9031362083313D0086
:100870009018921C4D2CFF302000E0007F30E100EA
:100880000030E2000030E3000130E4000030E50019
:100890009031D82083313D0093010430230065025C
:1008A0000318552C2000121108003D00921DAF2C9A
:1008B0002000EF0104306F020318AF2C3D00901DA3
:1008C000AF2C0F082100A30023082300ED006D0CBE
:1008D0002100A300A30C230C0F39A400240823003B
:1008E000DE00F7302100A30023083D00900523001F
:1008F0006D197D2C5E08C73E802C23005E08CA3E21
:10090000860001308700010801392100A300013071
:10091000A30601082306FE392306810023005E0892
:10092000031D962C9531CC258331A52C72302000E7
:10093000E0000030E100ED30E2000130E300003083
:10094000E400E5009031D820833101302100A3007C
:1009500023082000EF0704306F02031C5E2C2000E8
:10096000121108002100121123004D084E04031932
:10097000C22C4D0886004E088700811FC22C210022
:10098000121508000330230069060319E9016908FC
:10099000031DCD2C2100121508000230230069062A
:1009A000031DED2C2100A601A60A0030A70000308F
:1009B000A800A90102308C31952484312100270838
:1009C0002300CE00210026082300CD0003302100A3
:1009D000B10031082300E9007B2D6903031D7B2D45
:1009E00041306802031CF62C4030F82C23006808C4
:1009F0002100B1003108B3003303FF3A2300680738
:100A00002100B10031082300E8002030D2008030FE
:100A1000D10021003308B1003108B200230067087B
:100A200003192F2D502D23005308860054088700EA
:100A300001082100B10023005108860052088700F8
:100A400021003108810001302300D1070030D23D60
:100A50000130D3070030D43D01302100B202210023
:100A600032080319542D132D23005308860054080F
:100A7000870001082100B1002300510886005208B8
:100A8000870021003108810001302300D1070030A8
:100A9000D23D0130D3070030D43D01302100B202F5
:100AA00021003208031D342D23006808031D652D25
:100AB000403021003306031D5F2D0230612D0330CD
:100AC0002100B10031082300E9002100A601A60A97
:100AD0008030A7002030A8003308B1003108A900F9
:100AE00002308C319524210027082300CE002100FC
:100AF00026082300CD002100121508002100121144
:100B00003D009301900198010E302100A80099301A
:100B1000A700A9010230290203189F2D270886008B
:100B20002808870081010130A7070030A83D013067
:100B3000A6002608A90702302902031C8E2D1630B4
:100B40003D0091009F3097007B3092002100AA0168
:100B50000C302A020318C52D2A08A6000130A6353C
:100B6000FF3E031DAF2D2635203E86008701003055
:100B7000C03F0030C13FC23FC33F0130A60026083E
:100B8000AA070C302A02031CAC2D3D000E1796015B
:100B90000E120E13F7302100A60026083D00900526
:100BA0002100C5012300B201B301B4013D00901939
:100BB000CA2D01302100A60026082300DA000130EA
:100BC0002100A60026082300D900D801D701DF01A3
:100BD0002100AA0103302A020318122E2A35B73E3B
:100BE0008600013087000030C03FC13F2A35BD3E3E
:100BF0008600013087000030C03FC13F2A08CA3E4E
:100C000086000130870081012A08C73E8600013036
:100C1000870081010130A6002608AA0703302A02B6
:100C2000031CEE2D28302300B7000030B80016302A
:100C30003D00980000302000A3005030A200083092
:100C4000A10004302100A60026082000A000A01763
:100C50002300EE010030C6000030C5000030C400A3
:100C60000030C300D601E5010800230064088600B7
:100C70008701413F2100AB002B08A800A9012908EA
:100C800023003402031D482E2100280823003302CC
:100C900003184F2E33082100A8002808AB002100BC
:100CA0002B08A800A90128082300B3022100290865
:100CB0002300B43B2100AA012B082A020318792E35
:100CC0002A08583E860087010108A8002300300842
:100CD0008600023087002100280881000130A8002A
:100CE00028082300B00701302100A8002808AA071F
:100CF0005C2E2300330834040319B82E2100480861
:100D0000013EA8000030493DA900280886002908B6
:100D10008700083081005830A8000030A90048083A
:100D200086004908870042312808C03F2908C13F92
:100D30002300640886008701011BAB2E21004808B0
:100D40008600490887004830810048088600490825
:100D5000870081170800210048088600490887009D
:100D6000083081004808860049088700811708007C
:100D700021004808013EA8000030493DA90028088C
:100D8000860029088700083081005030A800003014
:100D9000A900480886004908870042312808C03F5A
:100DA0002908C13F480886004908870004308100AF
:100DB000480886004908870081172300350836084F
:100DC000B2135B08031D08008A319A220800210033
:100DD00012113D009301900198010E30F2009930FC
:100DE000F100F301023073020318072F7108860027
:100DF0007208870081010130F1070030F23D0130B7
:100E0000F0007008F30702307302031CF62E163050
:100E10003D0091009F3097007B309200F4010C3030
:100E2000740203182C2F7408F0000130F035FF3ED7
:100E3000031D162F7035203E860087010030C03F0D
:100E40000030C13FC23FC33F0130F0007008F407DB
:100E50000C307402031C132F3D000E1796010E1266
:100E60000E13F730F000700890052100C501230033
:100E7000B201B301B4013D009019312F0130F000EF
:100E800070082300DA000130F0007008D900D801A2
:100E9000D701DF01F401033074020318732F743596
:100EA000B73E8600013087000030C03FC13F743537
:100EB000BD3E8600013087000030C03FC13F74084E
:100EC000CA3E86000130870081017408C73E860053
:100ED0000130870081010130F0007008F407033011
:100EE0007402031C4F2F28302300B7000030B800D5
:100EF00016303D00980000302000A3005030A200C2
:100F00000830A1000430F0007008A000A0172300F2
:100F1000EE010030C6000030C5000030C4000030D3
:100F2000C300D601E501080023005A08031D08008C
:100F30000130F0007008DA005908031D0800013084
:100F4000F0007008D90002306206031DB92F37087F
:100F5000860038088700413181013708860038084B
:100F600087004830810037088600380887008117DD
:100F700008006203031D0800DD010830F000640A68
:100F800086008701700881005030F0000030F100C9
:100F90006408023E860087017008C03F7108C13FA7
:100FA0000430F0006408860087017008810064083E
:100FB0008600870181170130F0007008DD002100F4
:100FC0004808013EF0000030493DF10070088600FD
:100FD00071088700083081005030F0000030F100C7
:100FE000480886004908870042317008C03F7108F0
:100FF000C13F48088600490887008030810008000A
:10100000F3002400201D08007308F2007208A200FB
:101010007108A4007008A300201108002000500EE1
:10102000890C0339003A031D080064282100C51704
:1010300008302000ED006D082300E50008008B312A
:10104000142308008D3119250800EE302100C3005B
:101050000130C400451401302000ED006D0821006E
:10106000C600C51708009431C22408008131B82198
:10107000080020005408EB3E2100C3000130C400EA
:10108000451401302000ED006D082100C600C51791
:1010900008002100C51720005208ED005408EB3E5F
:1010A0008600013087006D08810008000030E100F3
:1010B0000230E0000030E2000030E3000030E400E5
:1010C000E5009031D82008002000510884000D3040
:1010D00004020318080098310435AB3E8200080072
:1010E000200050081F39013A031D0800500E890CDA
:1010F0000339013A031D080054080319C02854039A
:10110000031D0800C0284F302100C3000230C40076
:101110000030C7000830C6004514C51708004F301E
:101120002100C3000230C400C51708002000570882
:101130002300B400200056082300B30057302100DC
:10114000A60026082300B000B501B601B2170800BA
:1011500057302100C3000230C4000030C700073000
:10116000C600C130A6002608C500080020005208AD
:101170002100A60026082300E6002100C51708006C
:1011800020005108003A03198328013A03198F28D7
:10119000213A03199628013A0319A828033A03199A
:1011A000B628D228080023003708860038088700B0
:1011B0000030011B0130F50004303706B700003065
:1011C0003806B80008306506031DF52820005208CF
:1011D0007F393D00960016080319F0281030F128D9
:1011E0000430F30073082300E5006203031D342973
:1011F0005830F3000030F4003708860038088700C4
:1012000042317308C03F7408C13F8931AC21883135
:10121000023023006306031D1929370886003808A9
:10122000870004308100370886003808870081175E
:1012300008007508031D282937088600380887002C
:101240004830810037088600380887008117080079
:101250003708860038088700083081003708860084
:101260003808870081170800B21F39293508360869
:10127000B213E2010800230037088600380887000F
:101280000030011B01302100AB0004302300370681
:10129000B70000303806B80008306506031D602925
:1012A000200052087F393D009600160803195A297C
:1012B00010305B2904302100A90029082300E50033
:1012C0006203031DA52958302100A9000030AA009F
:1012D000230037088600380887004231210029089A
:1012E000C03F2A08C13F8A312022893102302300C1
:1012F0006306031D872937088600380887000430F5
:10130000810037088600380887008117080021000F
:101310002B08031D9829230037088600380887000A
:101320004830810037088600380887008117080098
:101330002300370886003808870008308100370806
:1013400086003808870081170800B21FAA293508CF
:101350003608B213E20108000830F0007008F2000D
:101360000030210047020830031946020318C9293A
:101370004608F0007008F20023006308031DC2292C
:101380000130C6296303031DC9290230F00070082B
:10139000E3007208F000F10170082100C602710834
:1013A000C73B23003708013EF0000030383DF10014
:1013B0007008860071088700720881005830F000BC
:1013C0007008E1002100451CFF291C2A2100430868
:1013D0008400440885000008F000230061088600AE
:1013E00087017008810001302100C3070030C43D2F
:1013F0000130F00070082300E1070130F2027208AA
:1014000003190800E62921004308840044088500E8
:101410000008F00023006108860087017008810041
:1014200001302100C3070030C43D0130F0007008D6
:101430002300E1070130F202720803190800032AB1
:1014400008302100A6002608A80000304702083016
:101450000319460203183F2A4608A6002608A800DA
:1014600023006308031D362A01303A2A6303031D53
:101470003F2A02302100A60026082300E3002100B5
:101480002808A600A7012608C6022708C73B230094
:101490003708013E2100A60000302300383D21001E
:1014A000A7002608860027088700280881005830F2
:1014B000A60026082300E1002100451C792A962A6F
:1014C00043088400440885000008A6002300610842
:1014D000860087012100260881000130C307003003
:1014E000C43D0130A60026082300E1070130210099
:1014F000A802280803190800602A43088400440849
:1015000085000008A60023006108860087012100ED
:10151000260881000130C3070030C43D0130A60019
:1015200026082300E10701302100A802280803193A
:1015300008007D2A23005A08031D080001302100FD
:10154000A60026082300DA005908031D0800013010
:101550002100A60026082300D90002306206031DE0
:10156000C32A3708860038088700413181013708CF
:101570008600380887004830810037088600380820
:101580008700811708006203031D0800DD01083091
:101590002100A6002300640A860087012100260896
:1015A00081005030A6000030A70023006408023EEE
:1015B0008600870121002608C03F2708C13F04306C
:1015C000A600230064088600870121002608810008
:1015D0002300640886008701811701302100A600DE
:1015E00026082300DD0021004808013EA600003047
:1015F000493DA7002608860027088700083081009B
:101600005030A6000030A70048088600490887002F
:1016100042312608C03F2708C13F480886004908D4
:101620008700803081000800803020005006031DB4
:101630000800C030F00070082100C500862BC530BE
:101640002100C3009830C4000030C7001230C6002B
:10165000080020005208031D5C2B5208F000F10125
:10166000F035F10DE830700784009830713D850049
:10167000003F2100C300013FC4004408F1004308BB
:10168000F00002307007840071080318710A8500A9
:101690000008F2007208C6004408F1004308F00098
:1016A00003307007840071080318710A8500000870
:1016B000F2007208C70008002100C50108000330CD
:1016C000200052020318802B5208F000F101F0357F
:1016D000F10DDF30700784009830713D8500003FC8
:1016E0002100C300013FC400430884004408850072
:1016F0000008F000F1017008C6007108C70008007A
:101700002100C50108002100C50108002000530880
:10171000013A03191F2B033A0319292B013A031924
:101720005F2B832B0800803020005006031D08002B
:10173000C0302100A6002608C500052CC5302100B8
:10174000C3009830C4000030C7001230C600080043
:1017500020005208031DDB2B52082100A600A70120
:10176000A635A70DE830260784009830273D850070
:10177000003FC300013FC4004408A7004308A6007F
:1017800002302607840027080318270A850000086E
:10179000A8002808C6004408A7004308A600033094
:1017A0002607840027080318270A85000008A800D8
:1017B0002808C70008002100C501080003302000E8
:1017C00052020318FF2B52082100A600A701A635DC
:1017D000A70DDF30260784009830273D8500003FA5
:1017E000C300013FC400430884004408850000088A
:1017F000A600A7012608C6002708C7000800210088
:10180000C50108002100C501080020005308013A65
:1018100003199E2B033A0319A82B013A0319DE2B57
:10182000022C0800F800700803191F2C7835B73E09
:10183000860001308700403FF900413F272C783572
:10184000BD3E860001308700403FF900413FFA006D
:1018500079087A04031D2F2CF001F1010800FF30F4
:101860007105F4007F307205F500790886007A086A
:10187000870042317408C03F7508C13F7908013EB6
:10188000F40000307A3DF500740886007508870082
:10189000730881004030F400790886007A088700D8
:1018A00074088105790886007A088700811579080F
:1018B00086007A088700811770080319782C78351C
:1018C000B73E860001308700403FF400413FF500FD
:1018D00004307406F60000307506F7007835B73E20
:1018E0008600013087007608C03F7708C13F902C02
:1018F0007835BD3E860001308700403FF400413F0F
:10190000F50004307406F60000307506F7007835EF
:10191000BD3E8600013087007608C03F7708C13F92
:101920007A08F1007908F00008002100AE002608CE
:101930000319A32C2E35B73E860001308700403FA7
:10194000AF00413FAB2C2E35BD3E860001308700F5
:10195000403FAF00413FB0002F083004031DB32CBF
:10196000A601A7010800FF302705AA007F3028053F
:10197000AB002F0886003008870042312A08C03F9C
:101980002B08C13F2F08013EAA000030303DAB00BC
:101990002A0886002B088700290881004030AA0009
:1019A0002F088600300887002A0881052F08860046
:1019B0003008870081152F088600300887008117BE
:1019C00026080319FC2C2E35B73E8600013087000F
:1019D000403FAA00413FAB0004302A06AC00003073
:1019E0002B06AD002E35B73E8600013087002C084F
:1019F000C03F2D08C13F142D2E35BD3E860001305D
:101A00008700403FAA00413FAB0004302A06AC00EB
:101A100000302B06AD002E35BD3E8600013087001C
:101A20002C08C03F2D08C13F3008A7002F08A60092
:101A300008002100C5170E302000E8009930E700AB
:101A4000E901023069020318362D6708860068082C
:101A5000870081010130E7070030E83D0130E600F2
:101A60006608E90702306902031C252D2030F000CA
:101A70000030F1000030F200F3003030F4000030AC
:101A8000F5009E3142268D313D000E172000EA01FF
:101A900003306A020318602D6A08CA3E86000130CE
:101AA000870081016A08C73E8600013087008101F6
:101AB0000130E6006608EA0703306A02031C4C2D79
:101AC000EB30F0000130F1000030F200F3000230A2
:101AD000F4000030F5009E3142268D313D000E139A
:101AE00028302300B7000030B80020302000E60086
:101AF00066082300E40064082100C800FF39031DC4
:101B00000030C90020005208E60066082300EE00FD
:101B10006E08031D922D10302000E6006608230099
:101B2000E500080000302000E1000130E000EE3068
:101B3000E2000130E3000130E4000030E5009031C4
:101B4000D82020302000E60066082300E5000800C9
:101B50002100C5170E30BC009930BB00BD0102301A
:101B60003D020318C42D3B0886003C088700810114
:101B70000130BB070030BC3D0130BA003A08BD0758
:101B800002303D02031CB32D2030A6000030A70018
:101B90000030A800A9003030AA000030AB009E3110
:101BA00072268D313D000E172100BE0103303E022A
:101BB0000318EE2D3E08CA3E8600013087008101E1
:101BC0003E08C73E86000130870081010130BA001F
:101BD0003A08BE0703303E02031CDA2DEB30A600A4
:101BE0000130A7000030A800A9000230AA00003090
:101BF000AB009E3172268D313D000E13283023003C
:101C0000B7000030B80020302100BA003A082300A5
:101C1000E40064082100C800FF39031D0030C9003A
:101C2000200052082100BA003A082300EE006E0896
:101C3000031D212E10302100BA003A082300E500D0
:101C4000080000302100B5000130B400EE30B600CD
:101C50000130B7000130B8000030B90091310821DF
:101C600020302100BA003A082300E50008003D00BA
:101C70000E122100C51B7E2E2300B21F4C2E0230F7
:101C8000F5007508E2005708031D482E95317025B0
:101C90002300D901DA01080021004808013EF500BF
:101CA0000030493DF6007508860076088700083048
:101CB00081005030F5000030F600480886004908E1
:101CC000870042317508C03F7608C13F480886004A
:101CD000490887000C3081004808860049088700C1
:101CE00081172300370886003808870004308100F8
:101CF0003708860038088700811708002000D01FA9
:101D0000952E0130F50075082300E2005808031DE8
:101D10008C2E953170258E312300D901DA015B08B4
:101D2000031D08008731942708000230F50075086C
:101D30002300E20021004808013EF5000030493D43
:101D4000F60075088600760887000830810050305C
:101D5000F5000030F6004808860049088700423147
:101D60007508C03F7608C13F4808860049088700CB
:101D70000430810048088600490887008117230045
:101D8000D901DA015B08031D080087319427080098
:101D90003D000E122100C51B112F2300B21FDF2EA4
:101DA00002302100AB002B082300E2005708031D7E
:101DB000DB2E9631E0262300D901DA01080021004C
:101DC0004808013EAB000030493DAC002B088600BE
:101DD0002C088700083081005030AB000030AC0088
:101DE000480886004908870042312B08C03F2C086C
:101DF000C13F48088600490887000C308100480828
:101E000086004908870081172300370886003808B4
:101E10008700043081003708860038088700811762
:101E200008002000D01F292F01302100AB002B0813
:101E30002300E2005808031D202F9631E0268E3142
:101E40002300D901DA015B08031D08008A319A22B8
:101E5000080002302100AB002B082300E200210023
:101E60004808013EAB000030493DAC002B0886001D
:101E70002C088700083081005030AB000030AC00E7
:101E8000480886004908870042312B08C03F2C08CB
:101E9000C13F48088600490887000430810048088F
:101EA00086004908870081172300D901DA015B0801
:101EB000031D08008A319A22080023006408860066
:101EC0008701413FF5007508F200F3017308340201
:101ED000031D6C2F720833020318722F3308F200AF
:101EE0007208F5007508F200F3017208B302730876
:101EF000B43BF401750874020318932F7408583E1C
:101F0000860087010108F200300886000230870051
:101F1000720881000130F2007208B0070130F2004F
:101F20007208F4077A2F330834040319D12F2100E3
:101F30004808013EF2000030493DF3007208860077
:101F400073088700083081005830F2000030F30039
:101F5000480886004908870042317208C03F73086C
:101F6000C13F2300640886008701011BC42F2100A4
:101F700048088600490887004830810048088600E4
:101F80004908870081170800210048088600490891
:101F900087000830810048088600490887008117BB
:101FA000080021004808013EF2000030493DF300DE
:101FB0007208860073088700083081005030F200F4
:101FC0000030F30048088600490887004231720853
:101FD000C03F7308C13F48088600490887000430A5
:101FE00081004808860049088700811723003508CA
:101FF0003608B2135B08031D0800873194270800D8
:102000009D31B225903192310A22903120008E11FB
:102010008231E122903193318E2390318431B22488
:10202000903108282400A0110230F0007008AA00A6
:102030001F289D31382508009D313C2508002400CB
:102040003908F0007008F9000F30203E8600023099
:102050008700413F8A00403F0A009031023A03194D
:102060001928013A031919281C2808003D00181CDA
:102070005628230064088600870180300106031D6E
:102080005428370886003808870084300106031D6D
:1020900054280C30F0006408860087017008810025
:1020A00064088600870181173D001810DF30F000BA
:1020B000700890050800F400700871040319732873
:1020C00074352B3E8600023087007008C03F7108CF
:1020D000C13F7208F3007408373E86000230870063
:1020E00073088100080074352B3E8600023087009B
:1020F0000C30C03F1D30C13F7408373E86000230AF
:102100008700810108002400201590289D31382582
:1021100008009D311C25033008009D313C25080036
:1021200024003708F0007008F9000B30203E8600CC
:1021300002308700413F8A00403F0A009031013A57
:1021400003198D28033A03198628013A03198628B2
:10215000073A031989288D2808003D00181CD1284A
:10216000230064088600870180300106031DCF2804
:10217000370886003808870084300106031DCF2801
:102180000C302100A600230064088600870121008E
:1021900026088100230064088600870181173D001E
:1021A0001810DF302100A60026083D009005080029
:1021B000DF2891319E21080097313F270800200039
:1021C0006108003A0319E8287F3A03190229072910
:1021D0006008013A0319D928033A03190729013A7B
:1021E0000319DC28063A03190729773A0319072946
:1021F000013A03190729073A03190729013A031974
:10220000072907296008FF3A031907290729080049
:102210000F2992310A22080088317020080021001D
:102220003508003A031918297F3A0319322937294A
:102230003408013A03190929033A03193729013AE5
:1022400003190C29063A03193729773A0319372954
:10225000013A03193729073A03193729013A0319B3
:10226000372937293408FF3A031937293729080055
:102270002100A80012112300690803194229210036
:10228000121508002100A9012808A6002608A700A9
:102290000130A6002608A907290A0319572927088B
:1022A000860003308700A70A0108031D4829280873
:1022B0002300D3000330D40021002908A6002608FB
:1022C0002300E800E701E901E90A210012150800EE
:1022D000023023006206031D70298F315D2708003C
:1022E0002300E2015D08031D9B2921004808013EEF
:1022F000F6000030493DF700760886007708870031
:10230000083081005030F6000030F70048088600A1
:102310004908870042317608C03F7708C13F480826
:102320008600490887000C3081004808860049086B
:102330008700811708002300DD0108000030240019
:10234000DA000030D9004B30D8000030D700DB0174
:10235000DC010830FD007D08DD002300EA011A30B1
:10236000FD007D08F70001309F315D2791311E305F
:10237000FD007D08F70002309F315D279131F001AB
:10238000C030F1002030F2004030FD007D08F30045
:1023900002308C31122471082300D0007008CF0065
:1023A000CD01CE01E9010800023023006206031DC1
:1023B000DC298631352608002300E2015D08031D73
:1023C000072A21004808013EAC000030493DAD001D
:1023D0002C0886002D088700083081005030AC00A2
:1023E0000030AD00480886004908870042312C08BB
:1023F000C03F2D08C13F48088600490887000C30BF
:1024000081004808860049088700811708002300DA
:10241000DD01080000302400DA000030D9004B3024
:10242000D8000030D700DB01DC0108302100B30008
:1024300033082400DD002300EA011A302100B30034
:102440003308AD0001309F31DD2792311E3021006D
:10245000B3003308AD0002309F31DD2792312100F7
:10246000A601C030A7002030A8004030B3003308D8
:10247000A90002308C319524210027082300D000C8
:10248000210026082300CF00CD01CE01E90108007C
:102490002100B8007A2A3408AD003308AC003408B3
:1024A000A7003308A6009F311E279231210027087C
:1024B000AF002608AE00380893314A23923121003C
:1024C0002C082D04031D662A3808080033088400F0
:1024D000340885000008B500B6013508A6003608A6
:1024E000A7003808013E9E31152692312100B70021
:1024F0003708B80038080319842A380886000330E2
:1025000087000108031D4B2A003008009D31192562
:102510009231F000240022088600870170088100B3
:102520000130F0007008A2070130A3020030A43B84
:10253000230824040319A02A9D312825053008000A
:102540002015A82A9D31482508009D314425080002
:1025500024003708F0007008F9000B30203E860098
:1025600002308700413F8A00403F0A009231013A21
:102570000319A52A033A0319A22A013A0319A22A28
:10258000073A0319A52AA52A0800F5002030F10012
:102590007108F6007008F1000130F135890BCD2A81
:1025A0007508F2000130F235FF3E031DD32A723563
:1025B0007107F3000130F335FF3E031DDB2A73354D
:1025C000F4007408F6077608860087018113700806
:1025D000031DF42A7535BD3E86000130870076085C
:1025E000C03F0030C13FFD2A7535B73E860001303F
:1025F00087007608C03F0030C13F7608860087011B
:1026000001137608043E86008701011708002100A7
:10261000AB002030A7002708AC002608A700013037
:10262000A735890B102B2B08A8000130A835FF3ED9
:10263000031D162B28352707A9000130A935FF3EB9
:10264000031D1E2B2935AA002A08AC072C0886007A
:10265000870181132608031D372B2B35BD3E8600CD
:10266000013087002C08C03F0030C13F402B2B3584
:10267000B73E8600013087002C08C03F0030C13FC4
:102680002C088600870101132C08043E8600870170
:10269000011708002100B2000130AE020030AF3B4C
:1026A0002E0A03192F0A03198B2B320886000330D8
:1026B0008700010803196A2B2C0884002D08850067
:1026C0000008B00032088600033087000108300699
:1026D0000319822B2C0884002D0885000008B00007
:1026E000B101B009B109B00A0319B10A3208860074
:1026F0000330870001083007AC0031080318310AA5
:10270000AD0008000130B0003008B2070130AC075E
:102710000030AD3D4C2BAC01AD0108002030230052
:102720006502031C08003D008E180800230069089C
:10273000031D080040302100B9003908B1002030E5
:102740009631842693312100BA003A08BB003B0839
:1027500003190800E530B3009830B40020309231FE
:1027600048229331003A0319C42B20008E152030E3
:102770002100B9003908A600A0309E31A726933168
:10278000A030913138219331DB302100B3009830F3
:10279000B4002030923148229331003A03190800E6
:1027A00020008E1108009D31822593310318E22B01
:1027B000FF2B9D31302508009D31342508009D31C7
:1027C0003C25080024003A08F1007108F900113096
:1027D000203E860002308700413F8A00403F0A00C9
:1027E0009331013A0319DF2B033A0319D92B013A2C
:1027F0000319DC2B073A0319DF2BDF2B0800240019
:10280000A0110230203E860002308700403F840045
:102810008501810A00089D31502593310130240043
:10282000A3020030A43B23082404031D192C063006
:102830001A2C0330F2000030F30072080800230065
:10284000E301DB01D801D701DD01E2017F30210086
:10285000C20023003708860038088700210042089C
:102860008105043023003706B70000303806B80071
:102870007F302100C2002300370886003808870017
:10288000210042088105043023003706B7000030DC
:102890003806B8007F302100C20048088600490889
:1028A000870042088105C501C601C7012300B201A6
:1028B000B301B40197319F27943100302100B50056
:1028C0000330B4000030B6000030B7000030B8006C
:1028D000B9009131082194318E31C82608002300B7
:1028E000E301DB01D801D701DD01E2017F302000E7
:1028F000EE002300370886003808870020006E08A5
:102900008105043023003706B70000303806B800D0
:102910007F302000EE00230037088600380887004B
:1029200020006E088105043023003706B700003010
:102930003806B8007F302000EE00210048088600ED
:102940004908870020006E0881052100C501C601E5
:10295000C7012300B201B301B40188310E209431C4
:1029600000302000E1000330E0000030E2000030E1
:10297000E3000030E400E5009031D82094318E313E
:10298000372608002000D801D901FE2C2100C517E8
:1029900023006003031D0A2D2000D8140A2D2100F6
:1029A000C5170A2D2100C5172000D41BE22C54089E
:1029B0000F390907BD3E860001308700403FF10016
:1029C000413FEC2C54080F390907B73E860001300F
:1029D0008700403FF100413FF20071088600720815
:1029E0008700811F0A2D7108860072088700011D6B
:1029F0000A2D0130F0007008D8000A2D50081F3948
:102A0000003A0319C62C013A0319CF2C033A0319D3
:102A1000D22C0A2D2100C51F08005830C3000030F9
:102A2000C40045140230F0007008C6000800200001
:102A3000D801D901572D2100C51723006003031DBC
:102A4000632D2000D814632D2100C517632D2100AC
:102A5000C5172000D41B382D54080F390907BD3E77
:102A6000860001308700403F2100A700413F442DF0
:102A7000200054080F390907B73E8600013087004F
:102A8000403F2100A700413FA800270886002808F2
:102A90008700811F632D2708860028088700011DF5
:102AA000632D0130A60026082000D800632D5008B1
:102AB0001F39003A03191B2D013A0319242D033A3B
:102AC0000319272D632D2100C51F08005830C300AE
:102AD0000030C40045140230A6002608C6000800D5
:102AE0002300D801D70102306206031D9D2D21006D
:102AF0004808013EF3000030493DF40073088600A9
:102B000074088700083081005830F3000030F4006A
:102B1000480886004908870042317308C03F74089E
:102B2000C13F4808860049088700483081004808AE
:102B30008600490887008117080021004708200007
:102B40005702031DA72D2100460820005602031836
:102B5000B02D57082100C700200056082100C600EC
:102B60008931AC215830F3000030F40023003708DD
:102B700086003808870042317308C03F7408C13F9F
:102B800037088600380887004830810037088600FB
:102B900038088700811708002D302100A000200888
:102BA0002300DC006D08FD39031D1C2E6D363F39F6
:102BB0002100A0000130A035FF3E031DDB2D203594
:102BC000203EA10021082300E40064082100C80081
:102BD000FF39031D0030C90004304806C80000302A
:102BE0004906C9002300640886008701010C890C8E
:102BF0000F390D3A031D192E50308600870123002E
:102C00006408023E84008501003F2100A000013FCE
:102C1000A10020088400210885000830A2002208B5
:102C20000319162E12001E00A20B122E94316F24CF
:102C30000800913168210800FD3023006D05210056
:102C4000A00004302006031D08008831D3200800AE
:102C50002D302400DE005E082300DC006D08FD3905
:102C6000031D782E6D363F392400DE000130DE353D
:102C7000FF3E031D372E5E35203EDF005F08230038
:102C8000E40064082100C800FF39031D0030C900BA
:102C900004304806C80000304906C9002300640813
:102CA00086008701010C890C0F390D3A031D752E22
:102CB00050308600870123006408023E84008501AD
:102CC000003F2400DE00013FDF005E0884005F0853
:102CD00085000830E00060080319722E12001E0003
:102CE000E00B6E2E94311F2408009131D42108008E
:102CF000FD3023006D052400DE0004305E06031D58
:102D0000080089313B2108002100B4002300EA01BA
:102D10004F0850040319922E4F0886005008870070
:102D2000811BDE2E4F0886005008870041312100AC
:102D3000310801020318A72E23004F08860050080F
:102D40008700413101082100B2003208B1002300A0
:102D5000EA012100310823006A020318C92E6A081B
:102D6000C03E860087012030873D01082100B20067
:102D700023006A0821003407B300330886000330BB
:102D80008700320881000130B20032082300EA07D0
:102D9000A92E2100A601C030A7002030A800403095
:102DA000B2003208A90002308C3195242100270896
:102DB0002300D000210026082300CF006A08080065
:102DC0002300D801D70102306206031D0D2F210018
:102DD0004808013EA9000030493DAA0029088600A4
:102DE0002A088700083081005830A9000030AA0066
:102DF000480886004908870042312908C03F2A0850
:102E0000C13F4808860049088700483081004808CB
:102E10008600490887008117080021004708200024
:102E20005702031D172F21004608200056020318E1
:102E3000202F57082100C700200056082100C60097
:102E40008A31202258302100A9000030AA00230036
:102E50003708860038088700423121002908C03F22
:102E60002A08C13F23003708860038088700483009
:102E70008100370886003808870081170800200085
:102E800050081F39013A031D0800500E890C033900
:102E9000013A031D0800540803198C2F5403031D25
:102EA00008008C2F4F302100C3000230C4000030D6
:102EB000C7000830C6004514C51708004F30210070
:102EC000C3000230C400C5170800200057082300C3
:102ED000B400200056082300B3005730F0007008FB
:102EE000B000B501B601B217080057302100C30089
:102EF0000230C4000030C7000730C600C130F00007
:102F00007008C500080020005208F0007008230077
:102F1000E6002100C517080020005108003A0319F7
:102F2000522F013A03195E2F213A0319652F013AF6
:102F30000319752F033A0319832F9E2F08002000D1
:102F4000500E890C0339003A031D0800F42F2100AC
:102F5000C5170830C10041082300E50008008B3187
:102F6000932308008D31A8250800EE302100C3000E
:102F70000130C40045140130C1004108C600C51726
:102F8000080095311725080080317B2008002000BB
:102F90005408EB3E2100C3000130C4004514013049
:102FA000C1004108C600C51708002100C517200050
:102FB00052082100C10020005408EB3E8600013079
:102FC0008700210041088100080000302100B50081
:102FD0000230B4000030B6000030B7000030B80056
:102FE000B9009131082108002000510884000D30FB
:102FF00004020318080098310435913E820008004D
:103000000934023443340034023401340034C0340F
:1030100032340934043400340034013402340234CC
:1030200001340034053424340034103401340434C1
:103030002434023402340534243406340034013498
:103040000534243401340034013407340534813428
:1030500003340A34003402340934043401340034B3
:1030600002340A34003400340034073405340234A6
:1030700002344034003400340734053482340234DE
:10308000403400340034343403344D340034693473
:10309000003463340034723400346F3400346334E9
:1030A000003468340034693400347034003420341F
:1030B00000345434003465340034633400346834EC
:1030C00000346E3400346F3400346C3400346F34A8
:1030D0000034673400347934003420340034493407
:1030E00000346E340034633400342E3400341A3427
:1030F000033450340034723400346F340034643498
:1031000000347534003463340034743400342034B3
:1031100000344E340034613400346D34003465348E
:1031200000349731C12F9731C42F9731FF2F97313A
:10313000C42F9731FF2F9731A72F9731AF2F97319A
:10314000E52F9731B52F9731B22F9731C72F973190
:10315000D52F9731FF2F8831332888313628883191
:103160006F288831362888316F28883116288831B1
:103170001F2888315628883125288831222888310F
:1031800039288831492888316F28123401340034B5
:1031900002340234003400340834D83404340A349D
:1031A0000034003401340134023400340134043476
:1031B0000334093404344F34463446340034D734AD
:1031C000983443349834773498344F344E34003440
:0431D00000349834FB
:103A1600080001300800053008002400961408004C
:103A26002400161508002400961508002400110825
:103A360008002000911508002000911108002000C0
:103A4600921108009D3122250800240096121616B0
:103A5600080024009616161608009D311025013020
:103A660008009D311025023008009D3110250130D7
:103A760008009D311325003008009D3128250530AA
:103A860008009D312C250A3008009D312C2509306F
:103A960008001630210097000800F0007008240086
:103AA6009100080024002010AA010E30080024000E
:103AB600A0119D311625043008009D310B252400E8
:103AC6002010AA010E3008002400A01521359D31D2
:103AD6005025033008002400A0150314210D9D3144
:103AE6005025053008007608F1007508F0007708C3
:103AF600F8007808F200003090315B2008002400BE
:103B06001608BF3940389600160E890C890C013903
:103B1600F000700C08007C30210099009801270005
:103B26009B012200960121001A1B0800962D6400B5
:103B3600800101310130FE020030FF3B7F087E0428
:103B4600031900349B2DFE0012001E000130FE02F8
:103B56000030FF3B7F087E0403190034A72D9E31F9
:103B660001269D319D318E259D319D314C259D31FE
:103B760085317E259D319E31C32608000230F00036
:103B86000030F1007908883100209D310030F500C1
:103B9600F600F7019D317625043008000130F0006B
:103BA6000030F1007908883100209D310030F500A1
:103BB600F600F7019D317625043008000130F0004B
:103BC6000030F1007908883100209D310030F50081
:103BD600F600F7019D317625023008000230F0002C
:103BE6000030F1007908883100209D310030F50061
:103BF600F600F7019D3176250230080022008C017F
:103C06008E01303021008C0037308E000C302300BE
:103C16008E0010308C0024008C01210095172200A4
:103C26009D0108002100A8002808860003308700AF
:103C360001082606031D212E2808080028088600EC
:103C460003308700A80A0108031D172E003008005C
:103C5600790886008701403FF000413FF10079086E
:103C6600023E860087010108883100209E3100301F
:103C7600F500F600F7019D3176250230080071083F
:103C8600F7007008F6000130F4020030F53B740AC4
:103C96000319750A03190800760886007708870055
:103CA600720881000130F6070030F73D462E0130DC
:103CB6002300C3070030C43D0030C53D0030C63D7B
:103CC6005F08031D08000130F0007008D60756088B
:103CD600031D0800FF30F0007008D6000800210020
:103CE6002708AD002608AC000130AA020030AB3B25
:103CF6002A0A03192B0A031908002C0886002D0826
:103D06008700280881000130AC070030AD3D772ED2
:103D160001302300C3070030C43D0030C53D0030EC
:103D2600C63D5F08031D080001302100A6002608D5
:103D36002300D6075608031D0800FF302100A60001
:103D460026082300D60008002100A8002808A7009E
:103D56002708A90029088600033087002608840062
:103D6600033085000008C03F8908031908000130A8
:103D7600A7002708A9070130A7002708A607AD2E28
:103D860023006508031D08003D008E0192011630D0
:103D960091009F3097007B309200210012150B177F
:103DA6008B173D008E19D92E8E15D42E0130210089
:103DB600A60026082300E50008003D001215EF3096
:103DC6002000E60066083D0090058E1401302000B4
:103DD600E60066082300DF00D60175302000E0000B
:103DE6000030E1000030E2000030E3000030E40083
:103DF600E5009031D82008003D001215EF30210073
:103E0600BA003A083D0090058E1401302100BA0030
:103E16003A082300DF00D60175302100B4000030D7
:103E2600B5000030B6000030B7000030B800B90069
:103E360091310821080021002708AB002608AA00B6
:103E46002A0884002B088500120003192F2F013041
:103E5600AA070030AB3D232F2609A8002709A90091
:103E6600A80A0319A90A2A082807A6002B08293D2B
:103E7600A70008009D311F259F312400A01D4D2F4E
:103E86009D3182259F31031C4D2F0F30F40074089D
:103E96002400A90024002935A03E860002308700B0
:103EA600413F8A00403F0A009F31F4007408240015
:103EB600A9000800FC00771D652FF0017C089231EF
:103EC600C5229F31F71C6C2FF001F00A7C08923155
:103ED600C5227C08983EF800F9010E30F93D7808B5
:103EE600FA007908FB007A0886007B0887007708C5
:103EF600810008002300DF0174302000E00000305C
:103F0600E1000030E2000030E3000030E400E500AC
:103F16009031D8209F313D008E101211101D9A2F1E
:103F2600FB302000E60066083D009005912F230037
:103F3600D60108002300DF0174302100B4000030F0
:103F4600B5000030B6000030B7000030B800B90048
:103F5600913108219F313D008E101211101DBA2F8C
:103F6600FB302100BA003A083D009005B12F23002E
:103F7600D601080055341D346E341D3467341D34A3
:103F8600D3341334863412345A341D348334103403
:103F960030341D3434341D3438341D343C341D342F
:103FA60040341D3444341D3448341D3460341D34CB
:103FB600123410342100B2002D1DE62FA60132085E
:103FC600933107239F312100AD1CEE2FA601A60ACF
:103FD60032089331072321003208983EAE00AF0124
:103FE6000E30AF3D2E08B0002F08B1003008860015
:0A3FF600310887002D088100080043
:020000040001F9
:04000E00E4FFCFFF3D
:00000001FF
